:100000000C9456000C946B000C946B000C946B00D9
:100010000C946B000C946B000C946B000C946B00B4
:100020000C946B000C946B000C946B000C946B00A4
:100030000C946B000C946B000C946B000C946B0094
:100040000C946B000C946B000C946B000C946B0084
:100050000C946B000C946B000C946B000C946B0074
:100060000C946B000C946B000C946B000C946B0064
:100070000C946B000C946B000C946B000C946B0054
:100080000C946B000C946B000C946B000C946B0044
:100090000C946B000C946B000C946B000C946B0034
:1000A0000C946B000C946B000C946B0011241FBE1D
:1000B000CFEFDAE0DEBFCDBF11E0A0E0B1E0ECE9C8
:1000C000FCE002C005900D92A03CB107D9F70E9458
:1000D00003020C944C060C94000000000000000089
:1000E000000000000000000008958A950000000054
:1000F0000000000000000000000000000000000000
:1001000000000000803089F70895282F8AEFEDDF86
:100110008AEFEBDF8AEFE9DF8AEFE7DF2A9520300D
:10012000A9F708958AEFF1DF8AEFEFDF8AEFEDDFBD
:100130008AEFEBDF0895EF92FF920F931F93CF9317
:10014000DF93CDB7DEB761970FB6F894DEBF0FBE71
:10015000CDBF7C0143E064E071E080E191E00E946A
:10016000BA0100E010E0BE016F5F7F4F8EE191E0C9
:100170000E942A01882371F029813A81A901415006
:1001800051094436510530F40F5F1F4FE216F30654
:1001900069F508C041E06DE271E08CE391E00E94F6
:1001A000BA01E1CF41E06CE271E08BE491E00E94A2
:1001B000BA011F930F938BE591E09F938F93CE012C
:1001C00001967C01FF928F930E94590343E06CE2F9
:1001D00071E0C7010E94BA010F900F900F900F902D
:1001E0000F900F9008301105E0F413C02E153F0555
:1001F00040F441E06CE271E087E691E00E94BA01D0
:10020000B2CF41E06CE271E080E791E00E94BA0178
:10021000AACF43E06CE271E08AE791E00E94BA0164
:1002200007C043E064E871E081E991E00E94BA010F
:1002300061960FB6F894DEBF0FBECDBFDF91CF91B0
:100240001F910F91FF90EF9008950E94DA010E9494
:1002500042020895AF92BF92DF92EF92FF920F9306
:100260001F93CF93DF9300D000D0CDB7DEB77C01D2
:100270005B010E943402C7010E947A0282E00E9460
:100280003C0260E081E00E94700210E00E94DE010A
:10029000082F8823D9F3833261F18A3299F411232C
:1002A000F9F064E080E00E94200260E281E00E94B8
:1002B000200266E080E00E9420028FEF0E9485000D
:1002C00011500EC0133060F4682F81E00E942002AC
:1002D000E1E0F0E0EC0FFD1FE10FF11D00831F5F77
:1002E0000E94DE01D82E8AE00E9485000D15C1F320
:1002F000CDCFFE01E10FF11D1182112361F18FEFCE
:10030000810FFE01E80FF11D4181405350E0882329
:10031000F9F02AE030E08150E1E0F0E0EC0FFD1F61
:10032000E80FF11D90819053929FB001939F700D43
:100330001124460F571FF901EE0FFF1F220F331F25
:10034000220F331F220F331F2E0F3F1F8111E3CFC8
:10035000F50151834083812F0F900F900F900F90E4
:10036000DF91CF911F910F91FF90EF90DF90BF90A1
:10037000AF900895FF920F931F93CF93DF938C015B
:10038000EB01F42E80E00E943C020E943402C8017E
:100390000E947A0260E081E00E947002CE010E9419
:1003A0007A028F2D0E949200DF91CF911F910F91C1
:1003B000FF9008951DB880EF84B908950F931F939F
:1003C000CF93DF93C0E0D0E025B12F70CE018295AE
:1003D0009295907F9827807F9827822B85B981E01E
:1003E0000E948500669B05C0FE01E356FE4F80819A
:1003F00005C02196CC30D10539F780E0DF91CF914F
:100400001F910F9108950E9425010E948B0243E0E5
:1004100069EA71E087EB91E00E94BA0184E690E01E
:100420000E94A80201960E949B00F8CF91B3807FA2
:100430009F70982B91BB5F9A0E946D005F98089502
:10044000CF93C62F811102C05E9801C05E9A8C2F97
:100450000E9416028C2F8295807F0E9416028DE2E8
:100460000E947500CF91089561E080E00E94200213
:1004700082E00E9485000895682F6C6080E00E94F1
:100480002002089580EF80BB80EC8AB984E10E944D
:1004900085005E9880E30E9416028AE00E94850033
:1004A00080E30E9416028AE00E94850080E30E9499
:1004B00016028AE00E94850080E20E9416028DE208
:1004C0000E94750068E280E00E94200280E00E94A5
:1004D0003C020E94340266E080E00E9420020895FF
:1004E000606820E4829FC0011124682B80E00E9494
:1004F00020020895CF93DF93FC016081662341F0D1
:10050000EC01219681E00E94200269916111FACFED
:10051000DF91CF91089580E480937C00EAE7F0E0DA
:1005200087E0808380E8808381E080937E00808103
:1005300080648083808184FFFDCF80917900609109
:10054000780070E0782B80E090E00E9450030895DE
:10055000CF93DF93EC01009749F00E944B039E017B
:1005600040E050E00E94BB02CB0102C080E090E07E
:10057000DF91CF910895052E97FB1EF400940E9401
:10058000D20257FD07D00E94DA0207FC03D04EF4D6
:100590000C94D20250954095309521953F4F4F4F86
:1005A0005F4F089590958095709561957F4F8F4F1F
:1005B0009F4F0895A1E21A2EAA1BBB1BFD010DC07F
:1005C000AA1FBB1FEE1FFF1FA217B307E407F50703
:1005D00020F0A21BB30BE40BF50B661F771F881FDF
:1005E000991F1A9469F760957095809590959B0175
:1005F000AC01BD01CF0108958F929F92AF92BF923F
:10060000CF92DF92EF92FF92CF93DF93EC0168815C
:1006100079818A819B81611571058105910521F49C
:1006200064E279ED8BE597E02DE133EF41E050E0B6
:100630000E94BB0249015A019B01AC01A7EAB1E447
:100640000E94F3056B017C01ACEEB4EFA5019401AF
:100650000E940106C60ED71EE81EF91EF7FE06C050
:1006600081E0C81AD108E10880E8F80AC882D98276
:10067000EA82FB82C701B6019F77DF91CF91FF909D
:10068000EF90DF90CF90BF90AF909F908F900895A4
:100690000E94FC02089580E091E00E94FC0208950F
:1006A0006093000170930101809302019093030114
:1006B0000895AEE0B0E0EFE5F3E00C9414060D8988
:1006C0001E8986E08C831A8309838FEF9FE79E83C0
:1006D0008D83AE01475E5F4F6F89788DCE010196A5
:1006E0000E947B03EF81F885E00FF11F10822E96A8
:1006F000E4E00C943006ACE0B0E0E1E8F3E00C9408
:1007000006067C016B018A01FC0117821682838137
:1007100081FFBDC1CE0101964C01F7019381F60125
:1007200093FD859193FF81916F01882309F4ABC1FB
:10073000853239F493FD859193FF81916F01853264
:1007400029F4B70190E00E946305E7CF512C312CCA
:1007500020E02032A0F48B3269F030F4803259F07E
:10076000833269F420612CC08D3239F0803339F442
:10077000216026C02260246023C0286021C027FD9C
:1007800027C030ED380F3A3078F426FF06C0FAE083
:100790005F9E300D1124532E13C08AE0389E300D19
:1007A0001124332E20620CC08E3221F426FD6BC141
:1007B000206406C08C3611F4206802C0883641F4EB
:1007C000F60193FD859193FF81916F018111C1CF56
:1007D000982F9F7D9554933028F40C5F1F4FFFE3B3
:1007E000F9830DC0833631F0833771F0833509F01A
:1007F0005BC022C0F801808189830E5F1F4F4424B3
:100800004394512C540115C03801F2E06F0E711C55
:10081000F801A080B18026FF03C0652D70E002C002
:100820006FEF7FEFC5012C870E9458052C018301D3
:100830002C852F77222E17C03801F2E06F0E711C25
:10084000F801A080B18026FF03C0652D70E002C0D2
:100850006FEF7FEFC5012C870E944D052C012C8581
:100860002068222E830123FC1BC0832D90E04816B4
:100870005906B0F4B70180E290E00E9463053A9413
:10088000F4CFF50127FC859127FE81915F01B70127
:1008900090E00E94630531103A94F1E04F1A51083C
:1008A0004114510471F7E5C0843611F0893639F5E9
:1008B000F80127FF07C060817181828193810C5FFD
:1008C0001F4F08C060817181882777FD8095982F20
:1008D0000E5F1F4F2F76B22E97FF09C0909580951F
:1008E000709561957F4F8F4F9F4F2068B22E2AE001
:1008F00030E0A4010E949505A82EA81844C08537B1
:1009000029F42F7EB22E2AE030E025C0F22FF97FA5
:10091000BF2E8F36C1F018F4883579F0B4C0803717
:1009200019F0883721F0AFC02F2F2061B22EB4FE0E
:100930000DC08B2D8460B82E09C024FF0AC09F2FE4
:100940009660B92E06C028E030E005C020E130E016
:1009500002C020E132E0F801B7FE07C0608171817A
:10096000828193810C5F1F4F06C06081718180E09E
:1009700090E00E5F1F4FA4010E949505A82EA818B5
:10098000FB2DFF77BF2EB6FE0BC02B2D2E7FA5149F
:1009900050F4B4FE0AC0B2FC08C02B2D2E7E05C058
:1009A0007A2C2B2D03C07A2C01C0752C24FF0DC08E
:1009B000FE01EA0DF11D8081803311F4297E09C00A
:1009C00022FF06C07394739404C0822F867809F0C6
:1009D000739423FD13C020FF06C05A2C731418F41F
:1009E000530C5718732C731468F4B70180E290E02D
:1009F0002C870E94630573942C85F5CF731410F433
:100A0000371801C0312C24FF12C0B70180E390E0F9
:100A10002C870E9463052C8522FF17C021FF03C08D
:100A200088E590E002C088E790E0B7010CC0822F13
:100A3000867859F021FD02C080E201C08BE227FDDB
:100A40008DE2B70190E00E946305A51438F4B70168
:100A500080E390E00E9463055A94F7CFAA94F401D2
:100A6000EA0DF11D8081B70190E00E946305A1109D
:100A7000F5CF332009F451CEB70180E290E00E9417
:100A800063053A94F6CFF7018681978102C08FEF14
:100A90009FEF2C96E2E10C942206FC010590615038
:100AA00070400110D8F7809590958E0F9F1F089584
:100AB000FC016150704001900110D8F7809590952D
:100AC0008E0F9F1F08950F931F93CF93DF93182FBF
:100AD000092FEB018B8181FD03C08FEF9FEF20C0B9
:100AE00082FF10C04E815F812C813D8142175307E8
:100AF0007CF4E881F9819F012F5F3F4F3983288380
:100B0000108306C0E885F985812F0995892B29F77F
:100B10002E813F812F5F3F4F3F832E83812F902F68
:100B2000DF91CF911F910F910895FA01AA272830E4
:100B300051F1203181F1E8946F936E7F6E5F7F4FAA
:100B40008F4F9F4FAF4FB1E03ED0B4E03CD0670F26
:100B5000781F891F9A1FA11D680F791F8A1F911D79
:100B6000A11D6A0F711D811D911DA11D20D009F4C9
:100B700068943F912AE0269F11243019305D31930B
:100B8000DEF6CF010895462F4770405D4193B3E0F4
:100B90000FD0C9F7F6CF462F4F70405D4A3318F09B
:100BA000495D31FD4052419302D0A9F7EACFB4E04C
:100BB000A6959795879577956795BA95C9F7009704
:100BC0006105710508959B01AC010A2E06945795A5
:100BD000479537952795BA95C9F7620F731F841FFC
:100BE000951FA01D08950E943D06A59F900DB49FDE
:100BF000900DA49F800D911D11240895B7FF0C94B2
:100C0000F3050E94F305821B930B08952F923F92E8
:100C10004F925F926F927F928F929F92AF92BF920C
:100C2000CF92DF92EF92FF920F931F93CF93DF93B8
:100C3000CDB7DEB7CA1BDB0B0FB6F894DEBF0FBE15
:100C4000CDBF09942A88398848885F846E847D8462
:100C50008C849B84AA84B984C884DF80EE80FD8064
:100C60000C811B81AA81B981CE0FD11D0FB6F894DA
:100C7000DEBF0FBECDBFED010895A29FB001B39FAF
:100C8000C001A39F700D811D1124911DB29F700D95
:0C0C9000811D1124911D0895F894FFCFE0
:100C9C0001000000746865206E756D6265723F001E
:100CAC0043616E20796F7520677565737300456EAF
:100CBC00746572206E756D6265723A20006265749F
:100CCC007765656E20312D3130302100456E7465AD
:100CDC00722061206E756D62657200436F72726571
:100CEC006374206E756D6265722100477565737350
:100CFC0065733A20257500546F6F206C6F77210057
:100D0C00546F6F20686967682100476F6F64206AB1
:100D1C006F6221006E6578742074696D652E2E2EBD
:100D2C0000426574746572206C75636B00313437E6
:100D3C002A32353830333639234C6574277320709A
:100D4C006C61792E2E2E0057656C636F6D652100DA
:00000001FF
